{
  "abi": [
    {
      "anonymous": false,
      "inputs": [
        {
          "indexed": true,
          "internalType": "uint256",
          "name": "id",
          "type": "uint256"
        },
        {
          "indexed": true,
          "internalType": "address",
          "name": "account",
          "type": "address"
        },
        {
          "indexed": true,
          "internalType": "address",
          "name": "delegate",
          "type": "address"
        },
        {
          "indexed": false,
          "internalType": "uint256",
          "name": "time",
          "type": "uint256"
        }
      ],
      "name": "Delegate",
      "type": "event"
    },
    {
      "anonymous": false,
      "inputs": [
        {
          "indexed": true,
          "internalType": "address",
          "name": "delegator",
          "type": "address"
        },
        {
          "indexed": true,
          "internalType": "address",
          "name": "fromDelegate",
          "type": "address"
        },
        {
          "indexed": true,
          "internalType": "address",
          "name": "toDelegate",
          "type": "address"
        }
      ],
      "name": "DelegateChanged",
      "type": "event"
    },
    {
      "anonymous": false,
      "inputs": [
        {
          "indexed": true,
          "internalType": "address",
          "name": "delegate",
          "type": "address"
        },
        {
          "indexed": false,
          "internalType": "uint256",
          "name": "previousBalance",
          "type": "uint256"
        },
        {
          "indexed": false,
          "internalType": "uint256",
          "name": "newBalance",
          "type": "uint256"
        }
      ],
      "name": "DelegateVotesChanged",
      "type": "event"
    },
    {
      "anonymous": false,
      "inputs": [
        {
          "indexed": true,
          "internalType": "uint256",
          "name": "id",
          "type": "uint256"
        },
        {
          "indexed": true,
          "internalType": "address",
          "name": "account",
          "type": "address"
        },
        {
          "indexed": true,
          "internalType": "address",
          "name": "delegate",
          "type": "address"
        },
        {
          "indexed": false,
          "internalType": "uint256",
          "name": "time",
          "type": "uint256"
        },
        {
          "indexed": false,
          "internalType": "uint256",
          "name": "amount",
          "type": "uint256"
        },
        {
          "indexed": false,
          "internalType": "uint256",
          "name": "slopePeriod",
          "type": "uint256"
        },
        {
          "indexed": false,
          "internalType": "uint256",
          "name": "cliff",
          "type": "uint256"
        }
      ],
      "name": "LockCreate",
      "type": "event"
    },
    {
      "anonymous": false,
      "inputs": [
        {
          "indexed": true,
          "internalType": "address",
          "name": "account",
          "type": "address"
        },
        {
          "indexed": false,
          "internalType": "uint256[]",
          "name": "id",
          "type": "uint256[]"
        }
      ],
      "name": "Migrate",
      "type": "event"
    },
    {
      "anonymous": false,
      "inputs": [
        {
          "indexed": true,
          "internalType": "address",
          "name": "previousOwner",
          "type": "address"
        },
        {
          "indexed": true,
          "internalType": "address",
          "name": "newOwner",
          "type": "address"
        }
      ],
      "name": "OwnershipTransferred",
      "type": "event"
    },
    {
      "anonymous": false,
      "inputs": [
        {
          "indexed": true,
          "internalType": "uint256",
          "name": "id",
          "type": "uint256"
        },
        {
          "indexed": true,
          "internalType": "address",
          "name": "account",
          "type": "address"
        },
        {
          "indexed": true,
          "internalType": "address",
          "name": "delegate",
          "type": "address"
        },
        {
          "indexed": false,
          "internalType": "uint256",
          "name": "counter",
          "type": "uint256"
        },
        {
          "indexed": false,
          "internalType": "uint256",
          "name": "time",
          "type": "uint256"
        },
        {
          "indexed": false,
          "internalType": "uint256",
          "name": "amount",
          "type": "uint256"
        },
        {
          "indexed": false,
          "internalType": "uint256",
          "name": "slopePeriod",
          "type": "uint256"
        },
        {
          "indexed": false,
          "internalType": "uint256",
          "name": "cliff",
          "type": "uint256"
        }
      ],
      "name": "Relock",
      "type": "event"
    },
    {
      "anonymous": false,
      "inputs": [
        {
          "indexed": true,
          "internalType": "uint256",
          "name": "newMinCliffPeriod",
          "type": "uint256"
        }
      ],
      "name": "SetMinCliffPeriod",
      "type": "event"
    },
    {
      "anonymous": false,
      "inputs": [
        {
          "indexed": true,
          "internalType": "uint256",
          "name": "newMinSlopePeriod",
          "type": "uint256"
        }
      ],
      "name": "SetMinSlopePeriod",
      "type": "event"
    },
    {
      "anonymous": false,
      "inputs": [
        {
          "indexed": true,
          "internalType": "uint256",
          "name": "newStartingPointWeek",
          "type": "uint256"
        }
      ],
      "name": "SetStartingPointWeek",
      "type": "event"
    },
    {
      "anonymous": false,
      "inputs": [
        {
          "indexed": true,
          "internalType": "address",
          "name": "account",
          "type": "address"
        }
      ],
      "name": "StartLocking",
      "type": "event"
    },
    {
      "anonymous": false,
      "inputs": [
        {
          "indexed": true,
          "internalType": "address",
          "name": "account",
          "type": "address"
        },
        {
          "indexed": true,
          "internalType": "address",
          "name": "to",
          "type": "address"
        }
      ],
      "name": "StartMigration",
      "type": "event"
    },
    {
      "anonymous": false,
      "inputs": [
        {
          "indexed": true,
          "internalType": "address",
          "name": "account",
          "type": "address"
        }
      ],
      "name": "StopLocking",
      "type": "event"
    },
    {
      "anonymous": false,
      "inputs": [
        {
          "indexed": true,
          "internalType": "address",
          "name": "account",
          "type": "address"
        },
        {
          "indexed": false,
          "internalType": "uint256",
          "name": "amount",
          "type": "uint256"
        }
      ],
      "name": "Withdraw",
      "type": "event"
    },
    {
      "inputs": [],
      "name": "WEEK",
      "outputs": [
        {
          "internalType": "uint32",
          "name": "",
          "type": "uint32"
        }
      ],
      "stateMutability": "view",
      "type": "function"
    },
    {
      "inputs": [
        {
          "internalType": "contract IERC20Upgradeable",
          "name": "_token",
          "type": "address"
        },
        {
          "internalType": "uint32",
          "name": "_startingPointWeek",
          "type": "uint32"
        },
        {
          "internalType": "uint32",
          "name": "_minCliffPeriod",
          "type": "uint32"
        },
        {
          "internalType": "uint32",
          "name": "_minSlopePeriod",
          "type": "uint32"
        }
      ],
      "name": "__Locking_init",
      "outputs": [],
      "stateMutability": "nonpayable",
      "type": "function"
    },
    {
      "inputs": [
        {
          "internalType": "address",
          "name": "account",
          "type": "address"
        }
      ],
      "name": "balanceOf",
      "outputs": [
        {
          "internalType": "uint256",
          "name": "",
          "type": "uint256"
        }
      ],
      "stateMutability": "view",
      "type": "function"
    },
    {
      "inputs": [],
      "name": "counter",
      "outputs": [
        {
          "internalType": "uint256",
          "name": "",
          "type": "uint256"
        }
      ],
      "stateMutability": "view",
      "type": "function"
    },
    {
      "inputs": [],
      "name": "decimals",
      "outputs": [
        {
          "internalType": "uint8",
          "name": "",
          "type": "uint8"
        }
      ],
      "stateMutability": "view",
      "type": "function"
    },
    {
      "inputs": [
        {
          "internalType": "address",
          "name": "delegatee",
          "type": "address"
        }
      ],
      "name": "delegate",
      "outputs": [],
      "stateMutability": "nonpayable",
      "type": "function"
    },
    {
      "inputs": [
        {
          "internalType": "address",
          "name": "delegatee",
          "type": "address"
        },
        {
          "internalType": "uint256",
          "name": "nonce",
          "type": "uint256"
        },
        {
          "internalType": "uint256",
          "name": "expiry",
          "type": "uint256"
        },
        {
          "internalType": "uint8",
          "name": "v",
          "type": "uint8"
        },
        {
          "internalType": "bytes32",
          "name": "r",
          "type": "bytes32"
        },
        {
          "internalType": "bytes32",
          "name": "s",
          "type": "bytes32"
        }
      ],
      "name": "delegateBySig",
      "outputs": [],
      "stateMutability": "nonpayable",
      "type": "function"
    },
    {
      "inputs": [
        {
          "internalType": "uint256",
          "name": "id",
          "type": "uint256"
        },
        {
          "internalType": "address",
          "name": "newDelegate",
          "type": "address"
        }
      ],
      "name": "delegateTo",
      "outputs": [],
      "stateMutability": "nonpayable",
      "type": "function"
    },
    {
      "inputs": [
        {
          "internalType": "address",
          "name": "account",
          "type": "address"
        }
      ],
      "name": "delegates",
      "outputs": [
        {
          "internalType": "address",
          "name": "",
          "type": "address"
        }
      ],
      "stateMutability": "view",
      "type": "function"
    },
    {
      "inputs": [
        {
          "internalType": "uint256",
          "name": "id",
          "type": "uint256"
        }
      ],
      "name": "getAccountAndDelegate",
      "outputs": [
        {
          "internalType": "address",
          "name": "_account",
          "type": "address"
        },
        {
          "internalType": "address",
          "name": "_delegate",
          "type": "address"
        }
      ],
      "stateMutability": "view",
      "type": "function"
    },
    {
      "inputs": [
        {
          "internalType": "address",
          "name": "account",
          "type": "address"
        }
      ],
      "name": "getAvailableForWithdraw",
      "outputs": [
        {
          "internalType": "uint96",
          "name": "",
          "type": "uint96"
        }
      ],
      "stateMutability": "view",
      "type": "function"
    },
    {
      "inputs": [
        {
          "internalType": "uint96",
          "name": "amount",
          "type": "uint96"
        },
        {
          "internalType": "uint32",
          "name": "slopePeriod",
          "type": "uint32"
        },
        {
          "internalType": "uint32",
          "name": "cliff",
          "type": "uint32"
        }
      ],
      "name": "getLock",
      "outputs": [
        {
          "internalType": "uint96",
          "name": "lockAmount",
          "type": "uint96"
        },
        {
          "internalType": "uint96",
          "name": "lockSlope",
          "type": "uint96"
        }
      ],
      "stateMutability": "view",
      "type": "function"
    },
    {
      "inputs": [
        {
          "internalType": "uint256",
          "name": "blockNumber",
          "type": "uint256"
        }
      ],
      "name": "getPastTotalSupply",
      "outputs": [
        {
          "internalType": "uint256",
          "name": "",
          "type": "uint256"
        }
      ],
      "stateMutability": "view",
      "type": "function"
    },
    {
      "inputs": [
        {
          "internalType": "address",
          "name": "account",
          "type": "address"
        },
        {
          "internalType": "uint256",
          "name": "blockNumber",
          "type": "uint256"
        }
      ],
      "name": "getPastVotes",
      "outputs": [
        {
          "internalType": "uint256",
          "name": "",
          "type": "uint256"
        }
      ],
      "stateMutability": "view",
      "type": "function"
    },
    {
      "inputs": [
        {
          "internalType": "address",
          "name": "account",
          "type": "address"
        }
      ],
      "name": "getVotes",
      "outputs": [
        {
          "internalType": "uint256",
          "name": "",
          "type": "uint256"
        }
      ],
      "stateMutability": "view",
      "type": "function"
    },
    {
      "inputs": [],
      "name": "getWeek",
      "outputs": [
        {
          "internalType": "uint256",
          "name": "",
          "type": "uint256"
        }
      ],
      "stateMutability": "view",
      "type": "function"
    },
    {
      "inputs": [
        {
          "internalType": "address",
          "name": "account",
          "type": "address"
        },
        {
          "internalType": "address",
          "name": "_delegate",
          "type": "address"
        },
        {
          "internalType": "uint96",
          "name": "amount",
          "type": "uint96"
        },
        {
          "internalType": "uint32",
          "name": "slopePeriod",
          "type": "uint32"
        },
        {
          "internalType": "uint32",
          "name": "cliff",
          "type": "uint32"
        }
      ],
      "name": "lock",
      "outputs": [
        {
          "internalType": "uint256",
          "name": "",
          "type": "uint256"
        }
      ],
      "stateMutability": "nonpayable",
      "type": "function"
    },
    {
      "inputs": [
        {
          "internalType": "address",
          "name": "account",
          "type": "address"
        }
      ],
      "name": "locked",
      "outputs": [
        {
          "internalType": "uint256",
          "name": "",
          "type": "uint256"
        }
      ],
      "stateMutability": "view",
      "type": "function"
    },
    {
      "inputs": [
        {
          "internalType": "uint256[]",
          "name": "id",
          "type": "uint256[]"
        }
      ],
      "name": "migrate",
      "outputs": [],
      "stateMutability": "nonpayable",
      "type": "function"
    },
    {
      "inputs": [],
      "name": "migrateTo",
      "outputs": [
        {
          "internalType": "address",
          "name": "",
          "type": "address"
        }
      ],
      "stateMutability": "view",
      "type": "function"
    },
    {
      "inputs": [],
      "name": "minCliffPeriod",
      "outputs": [
        {
          "internalType": "uint32",
          "name": "",
          "type": "uint32"
        }
      ],
      "stateMutability": "view",
      "type": "function"
    },
    {
      "inputs": [],
      "name": "minSlopePeriod",
      "outputs": [
        {
          "internalType": "uint32",
          "name": "",
          "type": "uint32"
        }
      ],
      "stateMutability": "view",
      "type": "function"
    },
    {
      "inputs": [],
      "name": "name",
      "outputs": [
        {
          "internalType": "string",
          "name": "",
          "type": "string"
        }
      ],
      "stateMutability": "view",
      "type": "function"
    },
    {
      "inputs": [],
      "name": "owner",
      "outputs": [
        {
          "internalType": "address",
          "name": "",
          "type": "address"
        }
      ],
      "stateMutability": "view",
      "type": "function"
    },
    {
      "inputs": [
        {
          "internalType": "uint256",
          "name": "id",
          "type": "uint256"
        },
        {
          "internalType": "address",
          "name": "newDelegate",
          "type": "address"
        },
        {
          "internalType": "uint96",
          "name": "newAmount",
          "type": "uint96"
        },
        {
          "internalType": "uint32",
          "name": "newSlopePeriod",
          "type": "uint32"
        },
        {
          "internalType": "uint32",
          "name": "newCliff",
          "type": "uint32"
        }
      ],
      "name": "relock",
      "outputs": [
        {
          "internalType": "uint256",
          "name": "",
          "type": "uint256"
        }
      ],
      "stateMutability": "nonpayable",
      "type": "function"
    },
    {
      "inputs": [],
      "name": "renounceOwnership",
      "outputs": [],
      "stateMutability": "nonpayable",
      "type": "function"
    },
    {
      "inputs": [
        {
          "internalType": "uint32",
          "name": "ts",
          "type": "uint32"
        }
      ],
      "name": "roundTimestamp",
      "outputs": [
        {
          "internalType": "uint32",
          "name": "",
          "type": "uint32"
        }
      ],
      "stateMutability": "view",
      "type": "function"
    },
    {
      "inputs": [
        {
          "internalType": "uint32",
          "name": "newMinCliffPeriod",
          "type": "uint32"
        }
      ],
      "name": "setMinCliffPeriod",
      "outputs": [],
      "stateMutability": "nonpayable",
      "type": "function"
    },
    {
      "inputs": [
        {
          "internalType": "uint32",
          "name": "newMinSlopePeriod",
          "type": "uint32"
        }
      ],
      "name": "setMinSlopePeriod",
      "outputs": [],
      "stateMutability": "nonpayable",
      "type": "function"
    },
    {
      "inputs": [
        {
          "internalType": "uint32",
          "name": "newStartingPointWeek",
          "type": "uint32"
        }
      ],
      "name": "setStartingPointWeek",
      "outputs": [],
      "stateMutability": "nonpayable",
      "type": "function"
    },
    {
      "inputs": [],
      "name": "start",
      "outputs": [],
      "stateMutability": "nonpayable",
      "type": "function"
    },
    {
      "inputs": [
        {
          "internalType": "address",
          "name": "to",
          "type": "address"
        }
      ],
      "name": "startMigration",
      "outputs": [],
      "stateMutability": "nonpayable",
      "type": "function"
    },
    {
      "inputs": [],
      "name": "startingPointWeek",
      "outputs": [
        {
          "internalType": "uint32",
          "name": "",
          "type": "uint32"
        }
      ],
      "stateMutability": "view",
      "type": "function"
    },
    {
      "inputs": [],
      "name": "stop",
      "outputs": [],
      "stateMutability": "nonpayable",
      "type": "function"
    },
    {
      "inputs": [],
      "name": "stopped",
      "outputs": [
        {
          "internalType": "bool",
          "name": "",
          "type": "bool"
        }
      ],
      "stateMutability": "view",
      "type": "function"
    },
    {
      "inputs": [],
      "name": "symbol",
      "outputs": [
        {
          "internalType": "string",
          "name": "",
          "type": "string"
        }
      ],
      "stateMutability": "view",
      "type": "function"
    },
    {
      "inputs": [],
      "name": "token",
      "outputs": [
        {
          "internalType": "contract IERC20Upgradeable",
          "name": "",
          "type": "address"
        }
      ],
      "stateMutability": "view",
      "type": "function"
    },
    {
      "inputs": [],
      "name": "totalSupply",
      "outputs": [
        {
          "internalType": "uint256",
          "name": "",
          "type": "uint256"
        }
      ],
      "stateMutability": "view",
      "type": "function"
    },
    {
      "inputs": [],
      "name": "totalSupplyLine",
      "outputs": [
        {
          "components": [
            {
              "internalType": "uint32",
              "name": "start",
              "type": "uint32"
            },
            {
              "internalType": "uint96",
              "name": "bias",
              "type": "uint96"
            },
            {
              "internalType": "uint96",
              "name": "slope",
              "type": "uint96"
            },
            {
              "internalType": "uint32",
              "name": "cliff",
              "type": "uint32"
            }
          ],
          "internalType": "struct LibBrokenLine.Line",
          "name": "initial",
          "type": "tuple"
        }
      ],
      "stateMutability": "view",
      "type": "function"
    },
    {
      "inputs": [],
      "name": "totalSupplyLineOld",
      "outputs": [
        {
          "components": [
            {
              "internalType": "uint32",
              "name": "start",
              "type": "uint32"
            },
            {
              "internalType": "uint96",
              "name": "bias",
              "type": "uint96"
            },
            {
              "internalType": "uint96",
              "name": "slope",
              "type": "uint96"
            },
            {
              "internalType": "uint32",
              "name": "cliff",
              "type": "uint32"
            }
          ],
          "internalType": "struct LibBrokenLine.Line",
          "name": "initial",
          "type": "tuple"
        }
      ],
      "stateMutability": "view",
      "type": "function"
    },
    {
      "inputs": [
        {
          "internalType": "address",
          "name": "newOwner",
          "type": "address"
        }
      ],
      "name": "transferOwnership",
      "outputs": [],
      "stateMutability": "nonpayable",
      "type": "function"
    },
    {
      "inputs": [
        {
          "internalType": "address",
          "name": "account",
          "type": "address"
        },
        {
          "internalType": "uint32",
          "name": "time",
          "type": "uint32"
        }
      ],
      "name": "updateAccountLines",
      "outputs": [],
      "stateMutability": "nonpayable",
      "type": "function"
    },
    {
      "inputs": [
        {
          "internalType": "address",
          "name": "account",
          "type": "address"
        },
        {
          "internalType": "uint32",
          "name": "blockNumber",
          "type": "uint32"
        }
      ],
      "name": "updateAccountLinesBlockNumber",
      "outputs": [],
      "stateMutability": "nonpayable",
      "type": "function"
    },
    {
      "inputs": [
        {
          "internalType": "uint32",
          "name": "time",
          "type": "uint32"
        }
      ],
      "name": "updateTotalSupplyLine",
      "outputs": [],
      "stateMutability": "nonpayable",
      "type": "function"
    },
    {
      "inputs": [
        {
          "internalType": "uint32",
          "name": "blockNumber",
          "type": "uint32"
        }
      ],
      "name": "updateTotalSupplyLineBlockNumber",
      "outputs": [],
      "stateMutability": "nonpayable",
      "type": "function"
    },
    {
      "inputs": [],
      "name": "withdraw",
      "outputs": [],
      "stateMutability": "nonpayable",
      "type": "function"
    }
  ],
  "bytecode": {
    "object": "0x608060405234801561001057600080fd5b50614b71806100206000396000f3fe608060405234801561001057600080fd5b506004361061028a5760003560e01c80638da5cb5b1161015c578063b6231633116100ce578063ee85dc4011610087578063ee85dc401461053d578063f15403f914610550578063f2fde38b14610571578063f4359ce514610584578063fc0c546a1461058c578063fc7881c6146105945761028a565b8063b6231633146104e6578063be9a6555146104ee578063c3cda520146104f6578063cbf9fe5f14610504578063d4fadbde14610517578063d93bf4fe1461052a5761028a565b806398c6e7601161012057806398c6e760146104955780639ab24eb01461049d5780639f4d110f146104b0578063a0f52da0146104c3578063ac7ae589146104d6578063b53546ab146104de5761028a565b80638da5cb5b1461044a5780638e539e8c146104525780639109ec0014610465578063940b6dcf1461047857806395d89b411461048d5761028a565b80635b4df0a211610200578063715018a6116101b9578063715018a6146103ec578063748bb5e8146103f457806375f12b21146104075780637ac512bb1461041c5780638606d0e11461042f578063874d6d81146104425761028a565b80635b4df0a2146103835780635c19a95c1461039657806361bc221a146103a957806367c8c473146103b15780636a4fd450146103c657806370a08231146103d95761028a565b8063258c97ca11610252578063258c97ca1461030d578063313ce567146103205780633a46b1a8146103355780633ccfd60b1461034857806349b3211614610350578063587cde1e146103635761028a565b806306fdde031461028f57806307da68f5146102ad5780630fc8deca146102b757806315622e23146102d757806318160ddd146102f8575b600080fd5b6102976105a7565b6040516102a49190614234565b60405180910390f35b6102b56105d5565b005b6102ca6102c5366004613df8565b61069d565b6040516102a49190614a3f565b6102ea6102e536600461405e565b610733565b6040516102a49291906141cb565b61030061075a565b6040516102a4919061497b565b6102b561031b366004613f07565b6107c0565b6103286108be565b6040516102a49190614a31565b610300610343366004613e7c565b6108c3565b6102b5610945565b6102b561035e3660046140ce565b610a9b565b610376610371366004613df8565b610bc7565b6040516102a49190614169565b6102b5610391366004613f07565b610be1565b6102b56103a4366004613df8565b610cb0565b610300610cc8565b6103b9610cce565b6040516102a491906149ef565b6102b56103d43660046140ce565b610ce1565b6103006103e7366004613df8565b610e0a565b6102b5610e9f565b610300610402366004613e14565b610f4b565b61040f6111ae565b6040516102a49190614229565b6102b561042a366004614009565b6111b7565b6103b961043d3660046140ce565b611279565b6103006112fb565b610376611313565b61030061046036600461405e565b611322565b6102b56104733660046140ce565b61138a565b6104806114b3565b6040516102a4919061496d565b610297611501565b610376611521565b6103006104ab366004613df8565b611535565b6102b56104be3660046140ce565b611540565b6102b56104d1366004613df8565b611601565b6103b96116b7565b6104806116c3565b6103b9611711565b6102b5611724565b6102b56103a4366004613ea7565b610300610512366004613df8565b6117df565b6102b56105253660046140ce565b611806565b6102b5610538366004613f3b565b6118cf565b61030061054b3660046140a5565b611cbb565b61056361055e3660046140e8565b611e41565b6040516102a4929190614a53565b6102b561057f366004613df8565b611f95565b6103b9612098565b61037661209e565b6102b56105a2366004614076565b6120ad565b60408051808201909152601381527252617269626c6520566f74652d457363726f7760681b60208201525b90565b6105dd6122ac565b6001600160a01b03166105ee611313565b6001600160a01b031614610637576040805162461bcd60e51b81526020600482018190526024820152600080516020614af8833981519152604482015290519081900360640190fd5b60675460ff16156106635760405162461bcd60e51b815260040161065a9061490a565b60405180910390fd5b6067805460ff1916600117905560405133907f0ba58f37677f991d1d1abdcd0196dcaf38b76014761d2f104fd8e663bcca947890600090a2565b6001600160a01b0381166000908152606f60205260408120600801546067546001600160601b039091169060ff1661072b5760006106d96122b0565b905060006106e682611279565b6001600160a01b0386166000908152606f60205260408120919250906107109060040183856122b4565b90506107256001600160601b03851682612389565b93505050505b90505b919050565b6000908152606a6020526040902080546001909101546001600160a01b0391821692911690565b607354600090600160201b90046001600160601b0316158061077e575060675460ff165b1561078b575060006105d2565b60006107956122b0565b905060006107a282611279565b90506107b0607082846122b4565b6001600160601b03169250505090565b60675460ff16156107e35760405162461bcd60e51b815260040161065a9061490a565b60675461010090046001600160a01b0316156108115760405162461bcd60e51b815260040161065a906146c4565b6108196122ac565b6001600160a01b031661082a611313565b6001600160a01b031614610873576040805162461bcd60e51b81526020600482018190526024820152600080516020614af8833981519152604482015290519081900360640190fd5b6001600160a01b0382166000908152606f6020526040902061089590826123c3565b6001600160a01b0382166000908152606f602052604090206108ba90600401826123c3565b5050565b601290565b6000806108cf83611279565b90506108d96122b0565b63ffffffff16831080156108f3575060008163ffffffff16115b61090f5760405162461bcd60e51b815260040161065a906148b4565b6001600160a01b0384166000908152606f602052604090206109329082856122b4565b6001600160601b03169150505b92915050565b60006109503361069d565b90506001600160601b03811615610a5757336000908152606f6020526040902060080154610987906001600160601b031682612389565b336000818152606f60205260409081902060080180546001600160601b0319166001600160601b039490941693909317909255606554915163a9059cbb60e01b81526001600160a01b039092169163a9059cbb916109e99185906004016141a9565b602060405180830381600087803b158015610a0357600080fd5b505af1158015610a17573d6000803e3d6000fd5b505050506040513d601f19601f82011682018060405250810190610a3b9190613fe9565b610a575760405162461bcd60e51b815260040161065a906148e1565b336001600160a01b03167f884edad9ce6fa2440d8a54cc123490eb96d2768479d49ff9c7366125a942436482604051610a909190614a3f565b60405180910390a250565b60675460ff1615610abe5760405162461bcd60e51b815260040161065a9061490a565b60675461010090046001600160a01b031615610aec5760405162461bcd60e51b815260040161065a906146c4565b610af46122ac565b6001600160a01b0316610b05611313565b6001600160a01b031614610b4e576040805162461bcd60e51b81526020600482018190526024820152600080516020614af8833981519152604482015290519081900360640190fd5b610b5961043d6122b0565b63ffffffff168163ffffffff1610610b835760405162461bcd60e51b815260040161065a9061464a565b6068805463ffffffff191663ffffffff83169081179091556040517f2f807974bc9b84320f39300f6395b257c58bb285c61d262ec17c8332772d683690600090a250565b600060405162461bcd60e51b815260040161065a906143d8565b60675460ff1615610c045760405162461bcd60e51b815260040161065a9061490a565b60675461010090046001600160a01b031615610c325760405162461bcd60e51b815260040161065a906146c4565b610c3a6122ac565b6001600160a01b0316610c4b611313565b6001600160a01b031614610c94576040805162461bcd60e51b81526020600482018190526024820152600080516020614af8833981519152604482015290519081900360640190fd5b6000610c9f82611279565b9050610cab83826107c0565b505050565b60405162461bcd60e51b815260040161065a906143d8565b60665481565b606754600160a81b900463ffffffff1681565b60675460ff1615610d045760405162461bcd60e51b815260040161065a9061490a565b60675461010090046001600160a01b031615610d325760405162461bcd60e51b815260040161065a906146c4565b610d3a6122ac565b6001600160a01b0316610d4b611313565b6001600160a01b031614610d94576040805162461bcd60e51b81526020600482018190526024820152600080516020614af8833981519152604482015290519081900360640190fd5b606763ffffffff821610610dba5760405162461bcd60e51b815260040161065a90614512565b6067805463ffffffff60a81b1916600160a81b63ffffffff8416908102919091179091556040517fa21222d0eed205eed6a46ed1fe7faf1d0b5d097b9e04a6d4e59b7f1debfc8b2b90600090a250565b6001600160a01b0381166000908152606f6020526040812060030154600160201b90046001600160601b03161580610e44575060675460ff165b15610e515750600061072e565b6000610e5b6122b0565b90506000610e6882611279565b6001600160a01b0385166000908152606f60205260409020909150610e8e9082846122b4565b6001600160601b0316949350505050565b610ea76122ac565b6001600160a01b0316610eb8611313565b6001600160a01b031614610f01576040805162461bcd60e51b81526020600482018190526024820152600080516020614af8833981519152604482015290519081900360640190fd5b6033546040516000916001600160a01b0316907f8be0079c531659141344cd1fd0a4f28419497f9722a3daafe3b4186f6b6457e0908390a3603380546001600160a01b0319169055565b60675460009060ff1615610f715760405162461bcd60e51b815260040161065a9061490a565b60675461010090046001600160a01b031615610f9f5760405162461bcd60e51b815260040161065a906146c4565b6000846001600160601b031611610fc85760405162461bcd60e51b815260040161065a9061437c565b606763ffffffff83161115610fef5760405162461bcd60e51b815260040161065a90614401565b606863ffffffff841611156110165760405162461bcd60e51b815260040161065a906147fd565b60668054600101905560006110296122b0565b9050600061103682611279565b90506110478888888888868861252c565b6001600160a01b0388166000908152606f6020526040902060080154611076906001600160601b0316876126e3565b6001600160a01b038981166000908152606f60205260409081902060080180546001600160601b0319166001600160601b03949094169390931790925560655491516323b872dd60e01b81529116906323b872dd906110dd90339030908b9060040161417d565b602060405180830381600087803b1580156110f757600080fd5b505af115801561110b573d6000803e3d6000fd5b505050506040513d601f19601f8201168201806040525081019061112f9190613fe9565b61114b5760405162461bcd60e51b815260040161065a906148e1565b866001600160a01b0316886001600160a01b03166066547f9024bda3efb3f3701e8d25fdb8d8adb67deb176633f590ee4a3cd1dad74dc73e848a8a8a6040516111979493929190614a00565b60405180910390a450506066549695505050505050565b60675460ff1681565b600054610100900460ff16806111d057506111d0612714565b806111de575060005460ff16155b6112195760405162461bcd60e51b815260040180806020018281038252602e815260200180614aca602e913960400191505060405180910390fd5b600054610100900460ff16158015611244576000805460ff1961ff0019909116610100171660011790555b61125085858585612725565b611258612881565b61126061297a565b8015611272576000805461ff00191690555b5050505050565b6000611283612a1b565b63ffffffff168263ffffffff16101561129e5750600061072e565b60006112bb6112ab612a1b565b63ffffffff8086169190612a2116565b6068549091506112f49063ffffffff908116906112e0908085169061c4e090612a4f16565b63ffffffff16612a2190919063ffffffff16565b9392505050565b600061130861043d6122b0565b63ffffffff16905090565b6033546001600160a01b031690565b60008061132e83611279565b90506113386122b0565b63ffffffff1683108015611352575060008163ffffffff16115b61136e5760405162461bcd60e51b815260040161065a906148b4565b61137a607082856122b4565b6001600160601b03169392505050565b60675460ff16156113ad5760405162461bcd60e51b815260040161065a9061490a565b60675461010090046001600160a01b0316156113db5760405162461bcd60e51b815260040161065a906146c4565b6113e36122ac565b6001600160a01b03166113f4611313565b6001600160a01b03161461143d576040805162461bcd60e51b81526020600482018190526024820152600080516020614af8833981519152604482015290519081900360640190fd5b606863ffffffff8216106114635760405162461bcd60e51b815260040161065a90614287565b6067805463ffffffff60c81b1916600160c81b63ffffffff8416908102919091179091556040517f88345dd2cdc36a4778bf7fed510015cf81efda1a773e1b6360fde7cb1631b21090600090a250565b60408051608081018252606e5463ffffffff80821683526001600160601b03600160201b830481166020850152600160801b83041693830193909352600160e01b9004909116606082015281565b60408051808201909152600681526576655241524960d01b602082015290565b60675461010090046001600160a01b031681565b600080610e5b6122b0565b60675460ff16156115635760405162461bcd60e51b815260040161065a9061490a565b60675461010090046001600160a01b0316156115915760405162461bcd60e51b815260040161065a906146c4565b6115996122ac565b6001600160a01b03166115aa611313565b6001600160a01b0316146115f3576040805162461bcd60e51b81526020600482018190526024820152600080516020614af8833981519152604482015290519081900360640190fd5b6115fe6070826123c3565b50565b6116096122ac565b6001600160a01b031661161a611313565b6001600160a01b031614611663576040805162461bcd60e51b81526020600482018190526024820152600080516020614af8833981519152604482015290519081900360640190fd5b60678054610100600160a81b0319166101006001600160a01b0384169081029190911790915560405133907f51ace7fc4e2a9f6104449d0bbe0532efdfd8dfebc68b225b91dd1de3bbb804fd90600090a350565b60685463ffffffff1681565b6040805160808101825260735463ffffffff80821683526001600160601b03600160201b830481166020850152600160801b83041693830193909352600160e01b9004909116606082015281565b606754600160c81b900463ffffffff1681565b61172c6122ac565b6001600160a01b031661173d611313565b6001600160a01b031614611786576040805162461bcd60e51b81526020600482018190526024820152600080516020614af8833981519152604482015290519081900360640190fd5b60675460ff166117a85760405162461bcd60e51b815260040161065a90614625565b6067805460ff1916905560405133907f5dd18d9d0267344a73ac262626686f7811c9a12e8bce0c8a1588fe1bf9b590bb90600090a2565b6001600160a01b03166000908152606f60205260409020600801546001600160601b031690565b60675460ff16156118295760405162461bcd60e51b815260040161065a9061490a565b60675461010090046001600160a01b0316156118575760405162461bcd60e51b815260040161065a906146c4565b61185f6122ac565b6001600160a01b0316611870611313565b6001600160a01b0316146118b9576040805162461bcd60e51b81526020600482018190526024820152600080516020614af8833981519152604482015290519081900360640190fd5b60006118c482611279565b90506108ba81611540565b60675461010090046001600160a01b03166118e9576115fe565b60006118f36122b0565b9050600061190082611279565b60675490915061010090046001600160a01b031660005b8451811015611c7357600061193e86838151811061193157fe5b6020026020010151612a93565b90506000606a600088858151811061195257fe5b6020908102919091018101518252810191909152604001600020600101546001600160a01b03169050611986828287612aca565b6001600160a01b0382166000908152606f60205260408120885160059091019082908a90879081106119b457fe5b602090810291909101810151825281810192909252604090810160009081208251608081018452905463ffffffff80821683526001600160601b03600160201b8304811696840196909652600160801b820490951693820193909352600160e01b90920490921660608201528951909250611a65908a9087908110611a3557fe5b6020908102919091018101516001600160a01b0387166000908152606f909252604090912060040190898b612b1c565b50506001600160a01b0385166000908152606f6020526040902060080154909150611a99906001600160601b031682612389565b6001600160a01b0385166000908152606f6020526040902060080180546001600160601b0319166001600160601b03929092169190911790558851611b11908a9087908110611ae457fe5b6020908102919091018101516001600160a01b0386166000908152606f909252604090912090898b612b1c565b505050611b3f898681518110611b2357fe5b6020026020010151888a6070612b1c909392919063ffffffff16565b505050856001600160a01b031663ef2c96718a8781518110611b5d57fe5b60200260200101518487876040518563ffffffff1660e01b8152600401611b879493929190614984565b600060405180830381600087803b158015611ba157600080fd5b505af1158015611bb5573d6000803e3d6000fd5b505060655460675460405163a9059cbb60e01b81526001600160a01b03928316945063a9059cbb9350611bf6926101009092049091169085906004016141a9565b602060405180830381600087803b158015611c1057600080fd5b505af1158015611c24573d6000803e3d6000fd5b505050506040513d601f19601f82011682018060405250810190611c489190613fe9565b611c645760405162461bcd60e51b815260040161065a906148e1565b50505050806001019050611917565b50336001600160a01b03167f9302ff85f986fa03af144f0430ecea91ded0b24af1655f46bde13c1d3c13b76b85604051611cad91906141e5565b60405180910390a250505050565b60675460009060ff1615611ce15760405162461bcd60e51b815260040161065a9061490a565b60675461010090046001600160a01b031615611d0f5760405162461bcd60e51b815260040161065a906146c4565b6000611d1a87612a93565b90506000611d266122b0565b90506000611d3382611279565b9050611d43838a89898986612b48565b6000898152606a60209081526040808320600101546001600160a01b038781168552606f9093529220911690611d7c90600401836123c3565b6001600160a01b0384166000908152606f6020526040902060070154611dc2908b908690600160201b90046001600160601b0316611dbc83838789612de2565b8c612e69565b606680546001019055611dda848a8a8a8a878961252c565b886001600160a01b0316846001600160a01b03168b7fff9e53f270b2e95a429fec2ba89150265ce93322bdadde5312993a6297d1021a606654868d8d8d604051611e289594939291906149bb565b60405180910390a4505060665498975050505050505050565b606754600090819063ffffffff600160a81b90910481169084161015611e795760405162461bcd60e51b815260040161065a90614303565b60675463ffffffff600160c81b90910481169085161015611eac5760405162461bcd60e51b815260040161065a9061492b565b60678054600091611ef29163ffffffff600160a81b909104811691829003811691611ee3919088038116906304c4b4009061303916565b6001600160601b031690613094565b606754909150600090611f2b9063ffffffff600160c81b90910481166068819003821691611ee3918a038116906302625a009061303916565b90506000611f596301312d00611f4a6001600160601b038616856126e3565b6001600160601b0316906126e3565b9050611f766305f5e100611ee36001600160601b038b1684613039565b9450611f88858863ffffffff166130d9565b9350505050935093915050565b611f9d6122ac565b6001600160a01b0316611fae611313565b6001600160a01b031614611ff7576040805162461bcd60e51b81526020600482018190526024820152600080516020614af8833981519152604482015290519081900360640190fd5b6001600160a01b03811661203c5760405162461bcd60e51b8152600401808060200182810382526026815260200180614a836026913960400191505060405180910390fd5b6033546040516001600160a01b038084169216907f8be0079c531659141344cd1fd0a4f28419497f9722a3daafe3b4186f6b6457e090600090a3603380546001600160a01b0319166001600160a01b0392909216919091179055565b61c4e081565b6065546001600160a01b031681565b60675460ff16156120d05760405162461bcd60e51b815260040161065a9061490a565b60675461010090046001600160a01b0316156120fe5760405162461bcd60e51b815260040161065a906146c4565b600061210983612a93565b6000848152606a60205260408120600101549192506001600160a01b03909116906121326122b0565b9050600061213f82611279565b6001600160a01b0384166000908152606f6020526040902090915061216490826123c3565b6001600160a01b0383166000908152606f602052604081208190819061218c908a8688612b1c565b925092509250600060405180608001604052808663ffffffff168152602001856001600160601b03168152602001846001600160601b031681526020018363ffffffff16815250905061220f85606f60008c6001600160a01b03166001600160a01b031681526020019081526020016000206000016123c390919063ffffffff16565b6001600160a01b0389166000908152606f60205260409020612233908b83896130f7565b60008a8152606a60205260409081902060010180546001600160a01b0319166001600160a01b038c81169182179092559151908a16908c907f85c2730e083fbf1495501a47cbebc8a7e57eab8b6eeac16aedcebc825e268fac90612298908a906149ef565b60405180910390a450505050505050505050565b3390565b4390565b600383015460009063ffffffff9081169084168114156123325760028501805463ffffffff8516919060001981019081106122eb57fe5b60009182526020909120015463ffffffff16101561231f5750506003830154600160201b90046001600160601b03166112f4565b61232a858585613117565b9150506112f4565b8063ffffffff168463ffffffff16111561237557600385015461232a908690839087906001600160601b03600160201b8204811691600160801b900416886131d7565b612380858585613117565b95945050505050565b6000826001600160601b0316826001600160601b031611156123bd5760405162461bcd60e51b815260040161065a906144db565b50900390565b600382015463ffffffff9081169082168114156123e057506108ba565b60038301546001600160601b03600160801b8204811691600160201b90041680156124d0578263ffffffff168463ffffffff16116124305760405162461bcd60e51b815260040161065a9061486f565b8363ffffffff168363ffffffff1610156124d0576124576001600160601b03821683612389565b63ffffffff84166000908152602087905260408120549192509061248a90600b0b61248185613296565b600b0b906132c8565b9050600081600b0b12156124b05760405162461bcd60e51b815260040161065a906142be565b9150816124c863ffffffff8086169060019061334016565b935050612430565b600394909401805463ffffffff191663ffffffff9490941693909317640100000000600160801b031916600160201b6001600160601b039586160217600160801b600160e01b031916600160801b919094160292909217905550565b846001600160601b03168463ffffffff16111561255b5760405162461bcd60e51b815260040161065a90614345565b612566878784612aca565b600080612574878787611e41565b91509150600060405180608001604052808663ffffffff168152602001846001600160601b03168152602001836001600160601b031681526020018763ffffffff1681525090506125d5606654828660706130f7909392919063ffffffff16565b6066546001600160a01b038a166000908152606f602052604090206125fb9183876130f7565b600061260d898963ffffffff166130d9565b905060405180608001604052808763ffffffff1681526020018a6001600160601b03168152602001826001600160601b031681526020018863ffffffff168152509150506126916066548286606f60008f6001600160a01b03166001600160a01b031681526020019081526020016000206004016130f7909392919063ffffffff16565b5050606680546000908152606a602052604080822080546001600160a01b039c8d166001600160a01b031991821617909155925482529020600101805498909916971696909617909655505050505050565b60008282016001600160601b0380851690821610156112f45760405162461bcd60e51b815260040161065a906143a1565b600061271f3061336e565b15905090565b600054610100900460ff168061273e575061273e612714565b8061274c575060005460ff16155b6127875760405162461bcd60e51b815260040180806020018281038252602e815260200180614aca602e913960400191505060405180910390fd5b600054610100900460ff161580156127b2576000805460ff1961ff0019909116610100171660011790555b606580546001600160a01b0319166001600160a01b0387161790556068805463ffffffff191663ffffffff868116919091179091556067908416111561280a5760405162461bcd60e51b815260040161065a90614401565b606863ffffffff831611156128315760405162461bcd60e51b815260040161065a906147fd565b6067805463ffffffff848116600160c81b0263ffffffff60c81b19918716600160a81b0263ffffffff60a81b1990931692909217161790558015611272576000805461ff00191690555050505050565b600054610100900460ff168061289a575061289a612714565b806128a8575060005460ff16155b6128e35760405162461bcd60e51b815260040180806020018281038252602e815260200180614aca602e913960400191505060405180910390fd5b600054610100900460ff1615801561290e576000805460ff1961ff0019909116610100171660011790555b60006129186122ac565b603380546001600160a01b0319166001600160a01b038316908117909155604051919250906000907f8be0079c531659141344cd1fd0a4f28419497f9722a3daafe3b4186f6b6457e0908290a35080156115fe576000805461ff001916905550565b600054610100900460ff16806129935750612993612714565b806129a1575060005460ff16155b6129dc5760405162461bcd60e51b815260040180806020018281038252602e815260200180614aca602e913960400191505060405180910390fd5b600054610100900460ff16158015612a07576000805460ff1961ff0019909116610100171660011790555b80156115fe576000805461ff001916905550565b612a3090565b60008263ffffffff168263ffffffff1611156123bd5760405162461bcd60e51b815260040161065a906144db565b6000808263ffffffff1611612a765760405162461bcd60e51b815260040161065a90614549565b8163ffffffff168363ffffffff1681612a8b57fe5b049392505050565b6000818152606a60205260409020546001600160a01b031633811461072e5760405162461bcd60e51b815260040161065a90614580565b612ad56070826123c3565b6001600160a01b0382166000908152606f60205260409020612af790826123c3565b6001600160a01b0383166000908152606f60205260409020610cab90600401826123c3565b6000806000612b2c878787613374565b91945092509050612b3e878686613703565b9450945094915050565b6000846001600160601b031611612b715760405162461bcd60e51b815260040161065a9061437c565b606763ffffffff83161115612b985760405162461bcd60e51b815260040161065a90614401565b606863ffffffff84161115612bbf5760405162461bcd60e51b815260040161065a90614757565b60008363ffffffff1611612be55760405162461bcd60e51b815260040161065a906144ad565b6000612c1384612bff63ffffffff80861690879061334016565b63ffffffff1661334090919063ffffffff16565b6001600160a01b0388166000908152606f602090815260408083208a845260050182528083208151608081018352905463ffffffff80821683526001600160601b03600160201b83048116958401869052600160801b830416938301849052600160e01b909104166060820152939450612c8d91906130d9565b90506000612cb682612bff8560600151866000015163ffffffff1661334090919063ffffffff16565b90508363ffffffff168163ffffffff161115612ce45760405162461bcd60e51b815260040161065a906147c6565b6000612d078460600151856000015163ffffffff1661334090919063ffffffff16565b90506000612d1f63ffffffff808916908a9061334016565b90508063ffffffff168263ffffffff161115612dd4576000612d4b63ffffffff808516908490612a2116565b90506000612d5f8c8c63ffffffff166130d9565b90506000612d98612d7a63ffffffff8086169085906137d016565b63ffffffff168e6001600160601b031661238990919063ffffffff16565b905087602001516001600160601b0316816001600160601b03161015612dd05760405162461bcd60e51b815260040161065a90614428565b5050505b505050505050505050505050565b6000612def848484612aca565b6000612df96122b0565b6001600160a01b0385166000908152606f60205260409020909150612e2090878584612b1c565b50612e32915060709050878584612b1c565b5050506001600160a01b0385166000908152606f60205260409020612e5c90600401878584612b1c565b5090979650505050505050565b806001600160601b0316826001600160601b03161115612e9b5760405162461bcd60e51b815260040161065a9061445f565b6000612eb06001600160601b03831684612389565b6001600160a01b0386166000908152606f60205260408120600801549192506001600160601b0390911690612ee58287612389565b9050806001600160601b0316836001600160601b0316111561302f576000612f166001600160601b03851683612389565b6001600160a01b0389166000908152606f6020526040902060080154909150612f48906001600160601b0316826126e3565b6001600160a01b038981166000908152606f6020908152604080832060080180546001600160601b0319166001600160601b0396909616959095179094556065548d8352606a909152908390205492516323b872dd60e01b8152908216926323b872dd92612fbf929116903090869060040161417d565b602060405180830381600087803b158015612fd957600080fd5b505af1158015612fed573d6000803e3d6000fd5b505050506040513d601f19601f820116820180604052508101906130119190613fe9565b61302d5760405162461bcd60e51b815260040161065a906148e1565b505b5050505050505050565b60006001600160601b0383166130515750600061093f565b8282026001600160601b03808416908086169083168161306d57fe5b046001600160601b0316146112f45760405162461bcd60e51b815260040161065a90614785565b600080826001600160601b0316116130be5760405162461bcd60e51b815260040161065a90614549565b816001600160601b0316836001600160601b031681612a8b57fe5b60006112f46001611f4a84611ee36001600160601b03881684612389565b613102848484613822565b61311184836000015183613703565b50505050565b6000806000806131b887600201805480602002602001604051908101604052809291908181526020016000905b828210156131ae576000848152602090819020604080516080810182529185015463ffffffff80821684526001600160601b03600160201b8304811685870152600160801b83041692840192909252600160e01b9004166060820152825260019092019101613144565b5050505086613b7d565b9250925092506131cc87828886868a6131d7565b979650505050505050565b60006001600160601b0384166131ee57508261328c565b855b8563ffffffff168163ffffffff161015613287576132176001600160601b03861685612389565b63ffffffff8216600090815260208a905260408120549196509061324190600b0b61248187613296565b9050600081600b0b12156132675760405162461bcd60e51b815260040161065a906142be565b93508361327f63ffffffff8084169060019061334016565b9150506131f0565b849150505b9695505050505050565b60006001605f1b826001600160601b0316106132c45760405162461bcd60e51b815260040161065a906146e7565b5090565b6000828201600b83900b82138015906132e7575083600b0b81600b0b12155b806133055750600083600b0b128015613305575083600b0b81600b0b125b6112f45760405162461bcd60e51b8152600401808060200182810382526021815260200180614aa96021913960400191505060405180910390fd5b600082820163ffffffff80851690821610156112f45760405162461bcd60e51b815260040161065a906143a1565b3b151590565b600082815260018401602090815260408083208151608081018352905463ffffffff80821683526001600160601b03600160201b83048116958401869052600160801b83041693830193909352600160e01b9004909116606082015282918291906133f15760405162461bcd60e51b815260040161065a906145ee565b6133fb87866123c3565b80602001519350806040015192506000915060006134488260600151612bff61343687896001600160601b031661309490919063ffffffff16565b855163ffffffff908116919061334016565b90508063ffffffff168663ffffffff16111561346d57600094506000935050506136fa565b600061348463ffffffff80841690600190612a2116565b9050600061349d63ffffffff808a1690600190612a2116565b905060006134bc6134b76001600160601b038a1689613c93565b613296565b905060006134e660016112e08860600151896000015163ffffffff1661334090919063ffffffff16565b90508063ffffffff168a63ffffffff161161355e576135146001612bff63ffffffff808516908e90612a2116565b96506135318163ffffffff166135298a613296565b8e9190613ce0565b6135598463ffffffff16613551846135488c613296565b600b0b90613d35565b8e9190613dad565b61367d565b8363ffffffff168a63ffffffff161161361a5760038c015461359090600160801b90046001600160601b031689612389565b60038d0180546001600160601b0392909216600160801b02600160801b600160e01b03199092169190911790556135d463ffffffff8516613551846135488c613296565b61360582611f4a8a6135f58e8a63ffffffff16612a2190919063ffffffff16565b63ffffffff908116919061303916565b98506135598363ffffffff166135298a613296565b60038c015461363990600160801b90046001600160601b031683612389565b8c60030160000160106101000a8154816001600160601b0302191690836001600160601b0316021790555081985088975061367d8363ffffffff166135298a613296565b6136928c63ffffffff808816908590613dad16565b60038c01546136b190600160201b90046001600160601b03168a612389565b60038d0180546001600160601b0392909216600160201b02640100000000600160801b031992831617905560008c815260018e0160205260409020805490911690555050505050505b93509350939050565b6040805160808101825263ffffffff92831681526003850154600160201b8082046001600160601b039081166020808601918252600160801b94859004831696860196875297871660608601908152600290990180546001810182556000918252989020945194909701805497519551985163ffffffff1990981694871694909417640100000000600160801b03191694811690910293909317600160801b600160e01b03191695909216909102939093176001600160e01b0316600160e01b9290911691909102179055565b600063ffffffff83166137e55750600061093f565b82820263ffffffff80841690808616908316816137fe57fe5b0463ffffffff16146112f45760405162461bcd60e51b815260040161065a90614785565b60408101516001600160601b031661384c5760405162461bcd60e51b815260040161065a9061470f565b80602001516001600160601b031681604001516001600160601b031611156138865760405162461bcd60e51b815260040161065a90614825565b6000828152600184016020526040902054600160201b90046001600160601b0316156138c45760405162461bcd60e51b815260040161065a90614681565b6000828152600184016020908152604091829020835181549285015193850151606086015163ffffffff1990941663ffffffff80841691909117640100000000600160801b031916600160201b6001600160601b039788160217600160801b600160e01b031916600160801b9690921695909502176001600160e01b0316600160e01b94909316939093029190911790556139609084906123c3565b6020810151600384015461398591600160201b9091046001600160601b0316906126e3565b6003840180546001600160601b0392909216600160201b02640100000000600160801b031990921691909117905580516000906139ce9063ffffffff90811690600190612a2116565b905060006139f6836040015184602001516001600160601b031661309490919063ffffffff16565b9050826060015163ffffffff1660001415613a7f5760408301516003860154613a3091600160801b9091046001600160601b0316906126e3565b8560030160000160106101000a8154816001600160601b0302191690836001600160601b03160217905550613a7a8263ffffffff16613a728560400151613296565b879190613dad565b613ae0565b6000613a9e84606001518463ffffffff1661334090919063ffffffff16565b9050613abf8163ffffffff16613ab78660400151613296565b889190613dad565b613adc84606001518363ffffffff1661334090919063ffffffff16565b9150505b6000613b096134b7856040015186602001516001600160601b0316613c9390919063ffffffff16565b90506000613b2a83866000015163ffffffff1661334090919063ffffffff16565b90506000613b4363ffffffff80841690600190612a2116565b9050613b688163ffffffff16613b60856135488a60400151613296565b8a9190613ce0565b61302f8863ffffffff808516908690613ce016565b815160009081908190801580613bb657508463ffffffff1686600081518110613ba257fe5b60200260200101516000015163ffffffff16115b15613bcc57600080600093509350935050613c8c565b60006000198201815b6080811015613c3957818310613bea57613c39565b600060026001858501010490508863ffffffff168a8281518110613c0a57fe5b60200260200101516000015163ffffffff1611613c2957809350613c30565b6001810392505b50600101613bd5565b50878281518110613c4657fe5b602002602001015160200151888381518110613c5e57fe5b602002602001015160400151898481518110613c7657fe5b6020026020010151606001519550955095505050505b9250925092565b600080826001600160601b031611613cbd5760405162461bcd60e51b815260040161065a906145b7565b816001600160601b0316836001600160601b031681613cd857fe5b069392505050565b600082815260208490526040902054613d0090600b90810b900b82613d35565b600092835260209390935250604090208054600b9290920b6001600160601b03166001600160601b0319909216919091179055565b6000818303600b83900b8213801590613d54575083600b0b81600b0b13155b80613d725750600083600b0b128015613d72575083600b0b81600b0b135b6112f45760405162461bcd60e51b8152600401808060200182810382526024815260200180614b186024913960400191505060405180910390fd5b600082815260208490526040902054613d0090600b90810b900b826132c8565b803563ffffffff8116811461072e57600080fd5b80356001600160601b038116811461072e57600080fd5b600060208284031215613e09578081fd5b81356112f481614a6d565b600080600080600060a08688031215613e2b578081fd5b8535613e3681614a6d565b94506020860135613e4681614a6d565b9350613e5460408701613de1565b9250613e6260608701613dcd565b9150613e7060808701613dcd565b90509295509295909350565b60008060408385031215613e8e578182fd5b8235613e9981614a6d565b946020939093013593505050565b60008060008060008060c08789031215613ebf578081fd5b8635613eca81614a6d565b95506020870135945060408701359350606087013560ff81168114613eed578182fd5b9598949750929560808101359460a0909101359350915050565b60008060408385031215613f19578182fd5b8235613f2481614a6d565b9150613f3260208401613dcd565b90509250929050565b60006020808385031215613f4d578182fd5b823567ffffffffffffffff80821115613f64578384fd5b818501915085601f830112613f77578384fd5b813581811115613f8357fe5b83810260405185828201018181108582111715613f9c57fe5b604052828152858101935084860182860187018a1015613fba578788fd5b8795505b83861015613fdc578035855260019590950194938601938601613fbe565b5098975050505050505050565b600060208284031215613ffa578081fd5b815180151581146112f4578182fd5b6000806000806080858703121561401e578384fd5b843561402981614a6d565b935061403760208601613dcd565b925061404560408601613dcd565b915061405360608601613dcd565b905092959194509250565b60006020828403121561406f578081fd5b5035919050565b60008060408385031215614088578182fd5b82359150602083013561409a81614a6d565b809150509250929050565b600080600080600060a086880312156140bc578081fd5b853594506020860135613e4681614a6d565b6000602082840312156140df578081fd5b6112f482613dcd565b6000806000606084860312156140fc578081fd5b61410584613de1565b925061411360208501613dcd565b915061412160408501613dcd565b90509250925092565b63ffffffff80825116835260208201516001600160601b0380821660208601528060408501511660408601525050806060830151166060840152505050565b6001600160a01b0391909116815260200190565b6001600160a01b0393841681529190921660208201526001600160601b03909116604082015260600190565b6001600160a01b039290921682526001600160601b0316602082015260400190565b6001600160a01b0392831681529116602082015260400190565b6020808252825182820181905260009190848201906040850190845b8181101561421d57835183529284019291840191600101614201565b50909695505050505050565b901515815260200190565b6000602080835283518082850152825b8181101561426057858101830151858201604001528201614244565b818111156142715783604083870101525b50601f01601f1916929092016040019392505050565b6020808252601a908201527f6e657720736c6f706520706572696f64203e2032207965617273000000000000604082015260600190565b60208082526025908201527f736c6f7065203c20302c20736f6d657468696e672077726f6e67207769746820604082015264736c6f706560d81b606082015260800190565b60208082526022908201527f636c69666620706572696f64203c206d696e696d616c206c6f636b20706572696040820152611bd960f21b606082015260800190565b60208082526017908201527f57726f6e672076616c756520736c6f7065506572696f64000000000000000000604082015260600190565b6020808252600b908201526a1e995c9bc8185b5bdd5b9d60aa1b604082015260600190565b6020808252601b908201527f536166654d6174683a206164646974696f6e206f766572666c6f770000000000604082015260600190565b6020808252600f908201526e1b9bdd081a5b5c1b195b595b9d1959608a1b604082015260600190565b6020808252600d908201526c636c69666620746f6f2062696760981b604082015260600190565b60208082526019908201527f64657465637420637574206465706f73697420636f726e657200000000000000604082015260600190565b6020808252602e908201527f496d706f737369626c6520746f2072656c6f636b3a206c65737320616d6f756e60408201526d742c207468656e206e6f7720697360901b606082015260800190565b6020808252601490820152730736c6f706520706572696f6420657175616c20360641b604082015260600190565b6020808252601e908201527f536166654d6174683a207375627472616374696f6e206f766572666c6f770000604082015260600190565b6020808252601a908201527f6e657720636c69666620706572696f64203e2032207965617273000000000000604082015260600190565b6020808252601a908201527f536166654d6174683a206469766973696f6e206279207a65726f000000000000604082015260600190565b60208082526017908201527f63616c6c6572206e6f742061206c6f636b206f776e6572000000000000000000604082015260600190565b60208082526018908201527f536166654d6174683a206d6f64756c6f206279207a65726f0000000000000000604082015260600190565b6020808252601f908201527f52656d6f76696e67204c696e652c207768696368206e6f742065786973747300604082015260600190565b6020808252600b908201526a1b9bdd081cdd1bdc1c195960aa1b604082015260600190565b6020808252601a908201527f77726f6e67206e65775374617274696e67506f696e745765656b000000000000604082015260600190565b60208082526023908201527f4c696e65207769746820676976656e20696420697320616c72656164792065786040820152621a5cdd60ea1b606082015260800190565b6020808252600990820152686d6967726174696e6760b81b604082015260600190565b6020808252600e908201526d34b73a1031b0b9ba1032b93937b960911b604082015260600190565b60208082526028908201527f536c6f7065203d3d20302c20756e61636365707461626c652076616c756520666040820152676f7220736c6f706560c01b606082015260800190565b602080825260149082015273736c6f706520706572696f6420746f6f2062696760601b604082015260600190565b60208082526021908201527f536166654d6174683a206d756c7469706c69636174696f6e206f766572666c6f6040820152607760f81b606082015260800190565b6020808252601e908201527f6e6577206c696e6520706572696f64206c6f636b20746f6f2073686f72740000604082015260600190565b6020808252600e908201526d706572696f6420746f6f2062696760901b604082015260600190565b6020808252602a908201527f536c6f7065203e20626961732c20756e61636365707461626c652076616c756560408201526920666f7220736c6f706560b01b606082015260800190565b60208082526025908201527f63616e2774207570646174652042726f6b656e4c696e6520666f7220706173746040820152642074696d6560d81b606082015260800190565b602080825260139082015272189b1bd8dac81b9bdd081e595d081b5a5b9959606a1b604082015260600190565b6020808252600f908201526e1d1c985b9cd9995c8819985a5b1959608a1b604082015260600190565b6020808252600790820152661cdd1bdc1c195960ca1b604082015260600190565b60208082526022908201527f736c6f706520706572696f64203c206d696e696d616c206c6f636b20706572696040820152611bd960f21b606082015260800190565b6080810161093f828461412a565b90815260200190565b84815260e08101614998602083018661412a565b6001600160a01b0393841660a08301529190921660c09092019190915292915050565b94855263ffffffff93841660208601526001600160601b039290921660408501528216606084015216608082015260a00190565b63ffffffff91909116815260200190565b63ffffffff94851681526001600160601b039390931660208401529083166040830152909116606082015260800190565b60ff91909116815260200190565b6001600160601b0391909116815260200190565b6001600160601b0392831681529116602082015260400190565b6001600160a01b03811681146115fe57600080fdfe4f776e61626c653a206e6577206f776e657220697320746865207a65726f20616464726573735369676e6564536166654d6174683a206164646974696f6e206f766572666c6f77496e697469616c697a61626c653a20636f6e747261637420697320616c726561647920696e697469616c697a65644f776e61626c653a2063616c6c6572206973206e6f7420746865206f776e65725369676e6564536166654d6174683a207375627472616374696f6e206f766572666c6f77a264697066735822122040c35487d8ec14016945d9b0b7d97afbd4294fd9bba59e03b4eb665e40c698c064736f6c63430007060033",
    "linkReferences": {}
  },
  "methodIdentifiers": {
    "WEEK()": "f4359ce5",
    "__Locking_init(address,uint32,uint32,uint32)": "7ac512bb",
    "balanceOf(address)": "70a08231",
    "counter()": "61bc221a",
    "decimals()": "313ce567",
    "delegate(address)": "5c19a95c",
    "delegateBySig(address,uint256,uint256,uint8,bytes32,bytes32)": "c3cda520",
    "delegateTo(uint256,address)": "fc7881c6",
    "delegates(address)": "587cde1e",
    "getAccountAndDelegate(uint256)": "15622e23",
    "getAvailableForWithdraw(address)": "0fc8deca",
    "getLock(uint96,uint32,uint32)": "f15403f9",
    "getPastTotalSupply(uint256)": "8e539e8c",
    "getPastVotes(address,uint256)": "3a46b1a8",
    "getVotes(address)": "9ab24eb0",
    "getWeek()": "874d6d81",
    "lock(address,address,uint96,uint32,uint32)": "748bb5e8",
    "locked(address)": "cbf9fe5f",
    "migrate(uint256[])": "d93bf4fe",
    "migrateTo()": "98c6e760",
    "minCliffPeriod()": "67c8c473",
    "minSlopePeriod()": "b6231633",
    "name()": "06fdde03",
    "owner()": "8da5cb5b",
    "relock(uint256,address,uint96,uint32,uint32)": "ee85dc40",
    "renounceOwnership()": "715018a6",
    "roundTimestamp(uint32)": "8606d0e1",
    "setMinCliffPeriod(uint32)": "6a4fd450",
    "setMinSlopePeriod(uint32)": "9109ec00",
    "setStartingPointWeek(uint32)": "49b32116",
    "start()": "be9a6555",
    "startMigration(address)": "a0f52da0",
    "startingPointWeek()": "ac7ae589",
    "stop()": "07da68f5",
    "stopped()": "75f12b21",
    "symbol()": "95d89b41",
    "token()": "fc0c546a",
    "totalSupply()": "18160ddd",
    "totalSupplyLine()": "b53546ab",
    "totalSupplyLineOld()": "940b6dcf",
    "transferOwnership(address)": "f2fde38b",
    "updateAccountLines(address,uint32)": "258c97ca",
    "updateAccountLinesBlockNumber(address,uint32)": "5b4df0a2",
    "updateTotalSupplyLine(uint32)": "9f4d110f",
    "updateTotalSupplyLineBlockNumber(uint32)": "d4fadbde",
    "withdraw()": "3ccfd60b"
  },
  "id": 4
}