{
  "abi": [
    {
      "anonymous": false,
      "inputs": [
        {
          "indexed": true,
          "internalType": "uint256",
          "name": "id",
          "type": "uint256"
        },
        {
          "indexed": true,
          "internalType": "address",
          "name": "account",
          "type": "address"
        },
        {
          "indexed": true,
          "internalType": "address",
          "name": "delegate",
          "type": "address"
        },
        {
          "indexed": false,
          "internalType": "uint256",
          "name": "time",
          "type": "uint256"
        }
      ],
      "name": "Delegate",
      "type": "event"
    },
    {
      "anonymous": false,
      "inputs": [
        {
          "indexed": true,
          "internalType": "address",
          "name": "delegator",
          "type": "address"
        },
        {
          "indexed": true,
          "internalType": "address",
          "name": "fromDelegate",
          "type": "address"
        },
        {
          "indexed": true,
          "internalType": "address",
          "name": "toDelegate",
          "type": "address"
        }
      ],
      "name": "DelegateChanged",
      "type": "event"
    },
    {
      "anonymous": false,
      "inputs": [
        {
          "indexed": true,
          "internalType": "address",
          "name": "delegate",
          "type": "address"
        },
        {
          "indexed": false,
          "internalType": "uint256",
          "name": "previousBalance",
          "type": "uint256"
        },
        {
          "indexed": false,
          "internalType": "uint256",
          "name": "newBalance",
          "type": "uint256"
        }
      ],
      "name": "DelegateVotesChanged",
      "type": "event"
    },
    {
      "anonymous": false,
      "inputs": [
        {
          "indexed": true,
          "internalType": "uint256",
          "name": "id",
          "type": "uint256"
        },
        {
          "indexed": true,
          "internalType": "address",
          "name": "account",
          "type": "address"
        },
        {
          "indexed": true,
          "internalType": "address",
          "name": "delegate",
          "type": "address"
        },
        {
          "indexed": false,
          "internalType": "uint256",
          "name": "time",
          "type": "uint256"
        },
        {
          "indexed": false,
          "internalType": "uint256",
          "name": "amount",
          "type": "uint256"
        },
        {
          "indexed": false,
          "internalType": "uint256",
          "name": "slopePeriod",
          "type": "uint256"
        },
        {
          "indexed": false,
          "internalType": "uint256",
          "name": "cliff",
          "type": "uint256"
        }
      ],
      "name": "LockCreate",
      "type": "event"
    },
    {
      "anonymous": false,
      "inputs": [
        {
          "indexed": true,
          "internalType": "address",
          "name": "account",
          "type": "address"
        },
        {
          "indexed": false,
          "internalType": "uint256[]",
          "name": "id",
          "type": "uint256[]"
        }
      ],
      "name": "Migrate",
      "type": "event"
    },
    {
      "anonymous": false,
      "inputs": [
        {
          "indexed": true,
          "internalType": "address",
          "name": "previousOwner",
          "type": "address"
        },
        {
          "indexed": true,
          "internalType": "address",
          "name": "newOwner",
          "type": "address"
        }
      ],
      "name": "OwnershipTransferred",
      "type": "event"
    },
    {
      "anonymous": false,
      "inputs": [
        {
          "indexed": true,
          "internalType": "uint256",
          "name": "id",
          "type": "uint256"
        },
        {
          "indexed": true,
          "internalType": "address",
          "name": "account",
          "type": "address"
        },
        {
          "indexed": true,
          "internalType": "address",
          "name": "delegate",
          "type": "address"
        },
        {
          "indexed": false,
          "internalType": "uint256",
          "name": "counter",
          "type": "uint256"
        },
        {
          "indexed": false,
          "internalType": "uint256",
          "name": "time",
          "type": "uint256"
        },
        {
          "indexed": false,
          "internalType": "uint256",
          "name": "amount",
          "type": "uint256"
        },
        {
          "indexed": false,
          "internalType": "uint256",
          "name": "slopePeriod",
          "type": "uint256"
        },
        {
          "indexed": false,
          "internalType": "uint256",
          "name": "cliff",
          "type": "uint256"
        }
      ],
      "name": "Relock",
      "type": "event"
    },
    {
      "anonymous": false,
      "inputs": [
        {
          "indexed": true,
          "internalType": "uint256",
          "name": "newMinCliffPeriod",
          "type": "uint256"
        }
      ],
      "name": "SetMinCliffPeriod",
      "type": "event"
    },
    {
      "anonymous": false,
      "inputs": [
        {
          "indexed": true,
          "internalType": "uint256",
          "name": "newMinSlopePeriod",
          "type": "uint256"
        }
      ],
      "name": "SetMinSlopePeriod",
      "type": "event"
    },
    {
      "anonymous": false,
      "inputs": [
        {
          "indexed": true,
          "internalType": "uint256",
          "name": "newStartingPointWeek",
          "type": "uint256"
        }
      ],
      "name": "SetStartingPointWeek",
      "type": "event"
    },
    {
      "anonymous": false,
      "inputs": [
        {
          "indexed": true,
          "internalType": "address",
          "name": "account",
          "type": "address"
        }
      ],
      "name": "StartLocking",
      "type": "event"
    },
    {
      "anonymous": false,
      "inputs": [
        {
          "indexed": true,
          "internalType": "address",
          "name": "account",
          "type": "address"
        },
        {
          "indexed": true,
          "internalType": "address",
          "name": "to",
          "type": "address"
        }
      ],
      "name": "StartMigration",
      "type": "event"
    },
    {
      "anonymous": false,
      "inputs": [
        {
          "indexed": true,
          "internalType": "address",
          "name": "account",
          "type": "address"
        }
      ],
      "name": "StopLocking",
      "type": "event"
    },
    {
      "anonymous": false,
      "inputs": [
        {
          "indexed": true,
          "internalType": "address",
          "name": "account",
          "type": "address"
        },
        {
          "indexed": false,
          "internalType": "uint256",
          "name": "amount",
          "type": "uint256"
        }
      ],
      "name": "Withdraw",
      "type": "event"
    },
    {
      "inputs": [],
      "name": "WEEK",
      "outputs": [
        {
          "internalType": "uint32",
          "name": "",
          "type": "uint32"
        }
      ],
      "stateMutability": "view",
      "type": "function"
    },
    {
      "inputs": [],
      "name": "counter",
      "outputs": [
        {
          "internalType": "uint256",
          "name": "",
          "type": "uint256"
        }
      ],
      "stateMutability": "view",
      "type": "function"
    },
    {
      "inputs": [
        {
          "internalType": "address",
          "name": "delegatee",
          "type": "address"
        }
      ],
      "name": "delegate",
      "outputs": [],
      "stateMutability": "nonpayable",
      "type": "function"
    },
    {
      "inputs": [
        {
          "internalType": "address",
          "name": "delegatee",
          "type": "address"
        },
        {
          "internalType": "uint256",
          "name": "nonce",
          "type": "uint256"
        },
        {
          "internalType": "uint256",
          "name": "expiry",
          "type": "uint256"
        },
        {
          "internalType": "uint8",
          "name": "v",
          "type": "uint8"
        },
        {
          "internalType": "bytes32",
          "name": "r",
          "type": "bytes32"
        },
        {
          "internalType": "bytes32",
          "name": "s",
          "type": "bytes32"
        }
      ],
      "name": "delegateBySig",
      "outputs": [],
      "stateMutability": "nonpayable",
      "type": "function"
    },
    {
      "inputs": [
        {
          "internalType": "address",
          "name": "account",
          "type": "address"
        }
      ],
      "name": "delegates",
      "outputs": [
        {
          "internalType": "address",
          "name": "",
          "type": "address"
        }
      ],
      "stateMutability": "view",
      "type": "function"
    },
    {
      "inputs": [
        {
          "internalType": "uint96",
          "name": "amount",
          "type": "uint96"
        },
        {
          "internalType": "uint32",
          "name": "slopePeriod",
          "type": "uint32"
        },
        {
          "internalType": "uint32",
          "name": "cliff",
          "type": "uint32"
        }
      ],
      "name": "getLock",
      "outputs": [
        {
          "internalType": "uint96",
          "name": "lockAmount",
          "type": "uint96"
        },
        {
          "internalType": "uint96",
          "name": "lockSlope",
          "type": "uint96"
        }
      ],
      "stateMutability": "view",
      "type": "function"
    },
    {
      "inputs": [
        {
          "internalType": "uint256",
          "name": "blockNumber",
          "type": "uint256"
        }
      ],
      "name": "getPastTotalSupply",
      "outputs": [
        {
          "internalType": "uint256",
          "name": "",
          "type": "uint256"
        }
      ],
      "stateMutability": "view",
      "type": "function"
    },
    {
      "inputs": [
        {
          "internalType": "address",
          "name": "account",
          "type": "address"
        },
        {
          "internalType": "uint256",
          "name": "blockNumber",
          "type": "uint256"
        }
      ],
      "name": "getPastVotes",
      "outputs": [
        {
          "internalType": "uint256",
          "name": "",
          "type": "uint256"
        }
      ],
      "stateMutability": "view",
      "type": "function"
    },
    {
      "inputs": [
        {
          "internalType": "address",
          "name": "account",
          "type": "address"
        }
      ],
      "name": "getVotes",
      "outputs": [
        {
          "internalType": "uint256",
          "name": "",
          "type": "uint256"
        }
      ],
      "stateMutability": "view",
      "type": "function"
    },
    {
      "inputs": [],
      "name": "migrateTo",
      "outputs": [
        {
          "internalType": "address",
          "name": "",
          "type": "address"
        }
      ],
      "stateMutability": "view",
      "type": "function"
    },
    {
      "inputs": [],
      "name": "minCliffPeriod",
      "outputs": [
        {
          "internalType": "uint32",
          "name": "",
          "type": "uint32"
        }
      ],
      "stateMutability": "view",
      "type": "function"
    },
    {
      "inputs": [],
      "name": "minSlopePeriod",
      "outputs": [
        {
          "internalType": "uint32",
          "name": "",
          "type": "uint32"
        }
      ],
      "stateMutability": "view",
      "type": "function"
    },
    {
      "inputs": [],
      "name": "owner",
      "outputs": [
        {
          "internalType": "address",
          "name": "",
          "type": "address"
        }
      ],
      "stateMutability": "view",
      "type": "function"
    },
    {
      "inputs": [],
      "name": "renounceOwnership",
      "outputs": [],
      "stateMutability": "nonpayable",
      "type": "function"
    },
    {
      "inputs": [
        {
          "internalType": "uint32",
          "name": "ts",
          "type": "uint32"
        }
      ],
      "name": "roundTimestamp",
      "outputs": [
        {
          "internalType": "uint32",
          "name": "",
          "type": "uint32"
        }
      ],
      "stateMutability": "view",
      "type": "function"
    },
    {
      "inputs": [
        {
          "internalType": "uint32",
          "name": "newMinCliffPeriod",
          "type": "uint32"
        }
      ],
      "name": "setMinCliffPeriod",
      "outputs": [],
      "stateMutability": "nonpayable",
      "type": "function"
    },
    {
      "inputs": [
        {
          "internalType": "uint32",
          "name": "newMinSlopePeriod",
          "type": "uint32"
        }
      ],
      "name": "setMinSlopePeriod",
      "outputs": [],
      "stateMutability": "nonpayable",
      "type": "function"
    },
    {
      "inputs": [
        {
          "internalType": "uint32",
          "name": "newStartingPointWeek",
          "type": "uint32"
        }
      ],
      "name": "setStartingPointWeek",
      "outputs": [],
      "stateMutability": "nonpayable",
      "type": "function"
    },
    {
      "inputs": [],
      "name": "startingPointWeek",
      "outputs": [
        {
          "internalType": "uint32",
          "name": "",
          "type": "uint32"
        }
      ],
      "stateMutability": "view",
      "type": "function"
    },
    {
      "inputs": [],
      "name": "stopped",
      "outputs": [
        {
          "internalType": "bool",
          "name": "",
          "type": "bool"
        }
      ],
      "stateMutability": "view",
      "type": "function"
    },
    {
      "inputs": [],
      "name": "token",
      "outputs": [
        {
          "internalType": "contract IERC20Upgradeable",
          "name": "",
          "type": "address"
        }
      ],
      "stateMutability": "view",
      "type": "function"
    },
    {
      "inputs": [],
      "name": "totalSupplyLine",
      "outputs": [
        {
          "components": [
            {
              "internalType": "uint32",
              "name": "start",
              "type": "uint32"
            },
            {
              "internalType": "uint96",
              "name": "bias",
              "type": "uint96"
            },
            {
              "internalType": "uint96",
              "name": "slope",
              "type": "uint96"
            },
            {
              "internalType": "uint32",
              "name": "cliff",
              "type": "uint32"
            }
          ],
          "internalType": "struct LibBrokenLine.Line",
          "name": "initial",
          "type": "tuple"
        }
      ],
      "stateMutability": "view",
      "type": "function"
    },
    {
      "inputs": [],
      "name": "totalSupplyLineOld",
      "outputs": [
        {
          "components": [
            {
              "internalType": "uint32",
              "name": "start",
              "type": "uint32"
            },
            {
              "internalType": "uint96",
              "name": "bias",
              "type": "uint96"
            },
            {
              "internalType": "uint96",
              "name": "slope",
              "type": "uint96"
            },
            {
              "internalType": "uint32",
              "name": "cliff",
              "type": "uint32"
            }
          ],
          "internalType": "struct LibBrokenLine.Line",
          "name": "initial",
          "type": "tuple"
        }
      ],
      "stateMutability": "view",
      "type": "function"
    },
    {
      "inputs": [
        {
          "internalType": "address",
          "name": "newOwner",
          "type": "address"
        }
      ],
      "name": "transferOwnership",
      "outputs": [],
      "stateMutability": "nonpayable",
      "type": "function"
    },
    {
      "inputs": [
        {
          "internalType": "address",
          "name": "account",
          "type": "address"
        },
        {
          "internalType": "uint32",
          "name": "time",
          "type": "uint32"
        }
      ],
      "name": "updateAccountLines",
      "outputs": [],
      "stateMutability": "nonpayable",
      "type": "function"
    },
    {
      "inputs": [
        {
          "internalType": "address",
          "name": "account",
          "type": "address"
        },
        {
          "internalType": "uint32",
          "name": "blockNumber",
          "type": "uint32"
        }
      ],
      "name": "updateAccountLinesBlockNumber",
      "outputs": [],
      "stateMutability": "nonpayable",
      "type": "function"
    },
    {
      "inputs": [
        {
          "internalType": "uint32",
          "name": "time",
          "type": "uint32"
        }
      ],
      "name": "updateTotalSupplyLine",
      "outputs": [],
      "stateMutability": "nonpayable",
      "type": "function"
    },
    {
      "inputs": [
        {
          "internalType": "uint32",
          "name": "blockNumber",
          "type": "uint32"
        }
      ],
      "name": "updateTotalSupplyLineBlockNumber",
      "outputs": [],
      "stateMutability": "nonpayable",
      "type": "function"
    }
  ],
  "bytecode": {
    "object": "0x608060405234801561001057600080fd5b50611e02806100206000396000f3fe608060405234801561001057600080fd5b50600436106101c45760003560e01c80639109ec00116100f9578063b623163311610097578063f15403f911610071578063f15403f91461036a578063f2fde38b1461038b578063f4359ce51461039e578063fc0c546a146103a6576101c4565b8063b623163314610341578063c3cda52014610349578063d4fadbde14610357576101c4565b80639ab24eb0116100d35780639ab24eb01461030b5780639f4d110f1461031e578063ac7ae58914610331578063b53546ab14610339576101c4565b80639109ec00146102db578063940b6dcf146102ee57806398c6e76014610303576101c4565b806367c8c4731161016657806375f12b211161014057806375f12b21146102985780638606d0e1146102ad5780638da5cb5b146102c05780638e539e8c146102c8576101c4565b806367c8c473146102685780636a4fd4501461027d578063715018a614610290576101c4565b8063587cde1e116101a2578063587cde1e1461021a5780635b4df0a21461023a5780635c19a95c1461024d57806361bc221a14610260576101c4565b8063258c97ca146101c95780633a46b1a8146101de57806349b3211614610207575b600080fd5b6101dc6101d73660046118bb565b6103ae565b005b6101f16101ec366004611834565b6104b5565b6040516101fe9190611d31565b60405180910390f35b6101dc610215366004611905565b610537565b61022d61022836600461181a565b610663565b6040516101fe919061196e565b6101dc6102483660046118bb565b61067d565b6101dc61025b36600461181a565b61074c565b6101f1610764565b61027061076a565b6040516101fe9190611d3a565b6101dc61028b366004611905565b61077d565b6101dc6108a6565b6102a0610952565b6040516101fe9190611982565b6102706102bb366004611905565b61095b565b61022d6109df565b6101f16102d63660046118ed565b6109ee565b6101dc6102e9366004611905565b610a56565b6102f6610b7f565b6040516101fe9190611ce8565b61022d610bcd565b6101f161031936600461181a565b610be1565b6101dc61032c366004611905565b610c30565b610270610cf1565b6102f6610cfd565b610270610d4b565b6101dc61025b36600461185d565b6101dc610365366004611905565b610d5e565b61037d61037836600461191f565b610e27565b6040516101fe929190611d4b565b6101dc61039936600461181a565b610f7b565b61027061107e565b61022d611084565b60675460ff16156103da5760405162461bcd60e51b81526004016103d190611c85565b60405180910390fd5b60675461010090046001600160a01b0316156104085760405162461bcd60e51b81526004016103d190611b87565b610410611093565b6001600160a01b03166104216109df565b6001600160a01b03161461046a576040805162461bcd60e51b81526020600482018190526024820152600080516020611dad833981519152604482015290519081900360640190fd5b6001600160a01b0382166000908152606f6020526040902061048c9082611097565b6001600160a01b0382166000908152606f602052604090206104b19060040182611097565b5050565b6000806104c18361095b565b90506104cb61120a565b63ffffffff16831080156104e5575060008163ffffffff16115b6105015760405162461bcd60e51b81526004016103d190611c58565b6001600160a01b0384166000908152606f6020526040902061052490828561120e565b6001600160601b03169150505b92915050565b60675460ff161561055a5760405162461bcd60e51b81526004016103d190611c85565b60675461010090046001600160a01b0316156105885760405162461bcd60e51b81526004016103d190611b87565b610590611093565b6001600160a01b03166105a16109df565b6001600160a01b0316146105ea576040805162461bcd60e51b81526020600482018190526024820152600080516020611dad833981519152604482015290519081900360640190fd5b6105f56102bb61120a565b63ffffffff168163ffffffff161061061f5760405162461bcd60e51b81526004016103d190611b50565b6068805463ffffffff191663ffffffff83169081179091556040517f2f807974bc9b84320f39300f6395b257c58bb285c61d262ec17c8332772d683690600090a250565b600060405162461bcd60e51b81526004016103d190611a82565b60675460ff16156106a05760405162461bcd60e51b81526004016103d190611c85565b60675461010090046001600160a01b0316156106ce5760405162461bcd60e51b81526004016103d190611b87565b6106d6611093565b6001600160a01b03166106e76109df565b6001600160a01b031614610730576040805162461bcd60e51b81526020600482018190526024820152600080516020611dad833981519152604482015290519081900360640190fd5b600061073b8261095b565b905061074783826103ae565b505050565b60405162461bcd60e51b81526004016103d190611a82565b60665481565b606754600160a81b900463ffffffff1681565b60675460ff16156107a05760405162461bcd60e51b81526004016103d190611c85565b60675461010090046001600160a01b0316156107ce5760405162461bcd60e51b81526004016103d190611b87565b6107d6611093565b6001600160a01b03166107e76109df565b6001600160a01b031614610830576040805162461bcd60e51b81526020600482018190526024820152600080516020611dad833981519152604482015290519081900360640190fd5b606763ffffffff8216106108565760405162461bcd60e51b81526004016103d190611ae2565b6067805463ffffffff60a81b1916600160a81b63ffffffff8416908102919091179091556040517fa21222d0eed205eed6a46ed1fe7faf1d0b5d097b9e04a6d4e59b7f1debfc8b2b90600090a250565b6108ae611093565b6001600160a01b03166108bf6109df565b6001600160a01b031614610908576040805162461bcd60e51b81526020600482018190526024820152600080516020611dad833981519152604482015290519081900360640190fd5b6033546040516000916001600160a01b0316907f8be0079c531659141344cd1fd0a4f28419497f9722a3daafe3b4186f6b6457e0908390a3603380546001600160a01b0319169055565b60675460ff1681565b60006109656112e5565b63ffffffff168263ffffffff161015610980575060006109da565b600061099d61098d6112e5565b63ffffffff80861691906112eb16565b6068549091506109d69063ffffffff908116906109c2908085169061c4e09061131f16565b63ffffffff166112eb90919063ffffffff16565b9150505b919050565b6033546001600160a01b031690565b6000806109fa8361095b565b9050610a0461120a565b63ffffffff1683108015610a1e575060008163ffffffff16115b610a3a5760405162461bcd60e51b81526004016103d190611c58565b610a466070828561120e565b6001600160601b03169392505050565b60675460ff1615610a795760405162461bcd60e51b81526004016103d190611c85565b60675461010090046001600160a01b031615610aa75760405162461bcd60e51b81526004016103d190611b87565b610aaf611093565b6001600160a01b0316610ac06109df565b6001600160a01b031614610b09576040805162461bcd60e51b81526020600482018190526024820152600080516020611dad833981519152604482015290519081900360640190fd5b606863ffffffff821610610b2f5760405162461bcd60e51b81526004016103d19061198d565b6067805463ffffffff60c81b1916600160c81b63ffffffff8416908102919091179091556040517f88345dd2cdc36a4778bf7fed510015cf81efda1a773e1b6360fde7cb1631b21090600090a250565b60408051608081018252606e5463ffffffff80821683526001600160601b03600160201b830481166020850152600160801b83041693830193909352600160e01b9004909116606082015281565b60675461010090046001600160a01b031681565b600080610bec61120a565b90506000610bf98261095b565b6001600160a01b0385166000908152606f60205260409020909150610c1f90828461120e565b6001600160601b0316949350505050565b60675460ff1615610c535760405162461bcd60e51b81526004016103d190611c85565b60675461010090046001600160a01b031615610c815760405162461bcd60e51b81526004016103d190611b87565b610c89611093565b6001600160a01b0316610c9a6109df565b6001600160a01b031614610ce3576040805162461bcd60e51b81526020600482018190526024820152600080516020611dad833981519152604482015290519081900360640190fd5b610cee607082611097565b50565b60685463ffffffff1681565b6040805160808101825260735463ffffffff80821683526001600160601b03600160201b830481166020850152600160801b83041693830193909352600160e01b9004909116606082015281565b606754600160c81b900463ffffffff1681565b60675460ff1615610d815760405162461bcd60e51b81526004016103d190611c85565b60675461010090046001600160a01b031615610daf5760405162461bcd60e51b81526004016103d190611b87565b610db7611093565b6001600160a01b0316610dc86109df565b6001600160a01b031614610e11576040805162461bcd60e51b81526020600482018190526024820152600080516020611dad833981519152604482015290519081900360640190fd5b6000610e1c8261095b565b90506104b181610c30565b606754600090819063ffffffff600160a81b90910481169084161015610e5f5760405162461bcd60e51b81526004016103d190611a09565b60675463ffffffff600160c81b90910481169085161015610e925760405162461bcd60e51b81526004016103d190611ca6565b60678054600091610ed89163ffffffff600160a81b909104811691829003811691610ec9919088038116906304c4b4009061136316565b6001600160601b0316906113be565b606754909150600090610f119063ffffffff600160c81b90910481166068819003821691610ec9918a038116906302625a009061136316565b90506000610f3f6301312d00610f306001600160601b03861685611403565b6001600160601b031690611403565b9050610f5c6305f5e100610ec96001600160601b038b1684611363565b9450610f6e858863ffffffff16611434565b9350505050935093915050565b610f83611093565b6001600160a01b0316610f946109df565b6001600160a01b031614610fdd576040805162461bcd60e51b81526020600482018190526024820152600080516020611dad833981519152604482015290519081900360640190fd5b6001600160a01b0381166110225760405162461bcd60e51b8152600401808060200182810382526026815260200180611d666026913960400191505060405180910390fd5b6033546040516001600160a01b038084169216907f8be0079c531659141344cd1fd0a4f28419497f9722a3daafe3b4186f6b6457e090600090a3603380546001600160a01b0319166001600160a01b0392909216919091179055565b61c4e081565b6065546001600160a01b031681565b3390565b600382015463ffffffff9081169082168114156110b457506104b1565b60038301546001600160601b03600160801b8204811691600160201b90041680156111a4578263ffffffff168463ffffffff16116111045760405162461bcd60e51b81526004016103d190611c13565b8363ffffffff168363ffffffff1610156111a45761112b6001600160601b0382168361144e565b63ffffffff84166000908152602087905260408120549192509061115e90600b0b61115585611482565b600b0b906114b4565b9050600081600b0b12156111845760405162461bcd60e51b81526004016103d1906119c4565b91508161119c63ffffffff8086169060019061152c16565b935050611104565b600394909401805463ffffffff191663ffffffff94909416939093176fffffffffffffffffffffffff000000001916600160201b6001600160601b0395861602176bffffffffffffffffffffffff60801b1916600160801b919094160292909217905550565b4390565b600383015460009063ffffffff90811690841681141561128c5760028501805463ffffffff85169190600019810190811061124557fe5b60009182526020909120015463ffffffff1610156112795750506003830154600160201b90046001600160601b03166112de565b61128485858561155a565b9150506112de565b8063ffffffff168463ffffffff1611156112cf576003850154611284908690839087906001600160601b03600160201b8204811691600160801b9004168861161a565b6112da85858561155a565b9150505b9392505050565b612a3090565b60008263ffffffff168263ffffffff1611156113195760405162461bcd60e51b81526004016103d190611aab565b50900390565b6000808263ffffffff16116113465760405162461bcd60e51b81526004016103d190611b19565b8163ffffffff168363ffffffff168161135b57fe5b049392505050565b60006001600160601b03831661137b57506000610531565b8282026001600160601b03808416908086169083168161139757fe5b046001600160601b0316146112de5760405162461bcd60e51b81526004016103d190611bd2565b600080826001600160601b0316116113e85760405162461bcd60e51b81526004016103d190611b19565b816001600160601b0316836001600160601b03168161135b57fe5b60008282016001600160601b0380851690821610156112de5760405162461bcd60e51b81526004016103d190611a4b565b60006112de6001610f3084610ec96001600160601b038816845b6000826001600160601b0316826001600160601b031611156113195760405162461bcd60e51b81526004016103d190611aab565b60006001605f1b826001600160601b0316106114b05760405162461bcd60e51b81526004016103d190611baa565b5090565b6000828201600b83900b82138015906114d3575083600b0b81600b0b12155b806114f15750600083600b0b1280156114f1575083600b0b81600b0b125b6112de5760405162461bcd60e51b8152600401808060200182810382526021815260200180611d8c6021913960400191505060405180910390fd5b600082820163ffffffff80851690821610156112de5760405162461bcd60e51b81526004016103d190611a4b565b6000806000806115fb87600201805480602002602001604051908101604052809291908181526020016000905b828210156115f1576000848152602090819020604080516080810182529185015463ffffffff80821684526001600160601b03600160201b8304811685870152600160801b83041692840192909252600160e01b9004166060820152825260019092019101611587565b50505050866116d9565b92509250925061160f87828886868a61161a565b979650505050505050565b60006001600160601b0384166116315750826116cf565b855b8563ffffffff168163ffffffff1610156116ca5761165a6001600160601b0386168561144e565b63ffffffff8216600090815260208a905260408120549196509061168490600b0b61115587611482565b9050600081600b0b12156116aa5760405162461bcd60e51b81526004016103d1906119c4565b9350836116c263ffffffff8084169060019061152c16565b915050611633565b849150505b9695505050505050565b81516000908190819080158061171257508463ffffffff16866000815181106116fe57fe5b60200260200101516000015163ffffffff16115b15611728576000806000935093509350506117e8565b60006000198201815b60808110156117955781831061174657611795565b600060026001858501010490508863ffffffff168a828151811061176657fe5b60200260200101516000015163ffffffff16116117855780935061178c565b6001810392505b50600101611731565b508782815181106117a257fe5b6020026020010151602001518883815181106117ba57fe5b6020026020010151604001518984815181106117d257fe5b6020026020010151606001519550955095505050505b9250925092565b80356001600160a01b03811681146109da57600080fd5b803563ffffffff811681146109da57600080fd5b60006020828403121561182b578081fd5b6112de826117ef565b60008060408385031215611846578081fd5b61184f836117ef565b946020939093013593505050565b60008060008060008060c08789031215611875578182fd5b61187e876117ef565b95506020870135945060408701359350606087013560ff811681146118a1578283fd5b9598949750929560808101359460a0909101359350915050565b600080604083850312156118cd578182fd5b6118d6836117ef565b91506118e460208401611806565b90509250929050565b6000602082840312156118fe578081fd5b5035919050565b600060208284031215611916578081fd5b6112de82611806565b600080600060608486031215611933578283fd5b83356001600160601b0381168114611949578384fd5b925061195760208501611806565b915061196560408501611806565b90509250925092565b6001600160a01b0391909116815260200190565b901515815260200190565b6020808252601a908201527f6e657720736c6f706520706572696f64203e2032207965617273000000000000604082015260600190565b60208082526025908201527f736c6f7065203c20302c20736f6d657468696e672077726f6e67207769746820604082015264736c6f706560d81b606082015260800190565b60208082526022908201527f636c69666620706572696f64203c206d696e696d616c206c6f636b20706572696040820152611bd960f21b606082015260800190565b6020808252601b908201527f536166654d6174683a206164646974696f6e206f766572666c6f770000000000604082015260600190565b6020808252600f908201526e1b9bdd081a5b5c1b195b595b9d1959608a1b604082015260600190565b6020808252601e908201527f536166654d6174683a207375627472616374696f6e206f766572666c6f770000604082015260600190565b6020808252601a908201527f6e657720636c69666620706572696f64203e2032207965617273000000000000604082015260600190565b6020808252601a908201527f536166654d6174683a206469766973696f6e206279207a65726f000000000000604082015260600190565b6020808252601a908201527f77726f6e67206e65775374617274696e67506f696e745765656b000000000000604082015260600190565b6020808252600990820152686d6967726174696e6760b81b604082015260600190565b6020808252600e908201526d34b73a1031b0b9ba1032b93937b960911b604082015260600190565b60208082526021908201527f536166654d6174683a206d756c7469706c69636174696f6e206f766572666c6f6040820152607760f81b606082015260800190565b60208082526025908201527f63616e2774207570646174652042726f6b656e4c696e6520666f7220706173746040820152642074696d6560d81b606082015260800190565b602080825260139082015272189b1bd8dac81b9bdd081e595d081b5a5b9959606a1b604082015260600190565b6020808252600790820152661cdd1bdc1c195960ca1b604082015260600190565b60208082526022908201527f736c6f706520706572696f64203c206d696e696d616c206c6f636b20706572696040820152611bd960f21b606082015260800190565b600060808201905063ffffffff80845116835260208401516001600160601b03808216602086015280604087015116604086015250508060608501511660608401525092915050565b90815260200190565b63ffffffff91909116815260200190565b6001600160601b039283168152911660208201526040019056fe4f776e61626c653a206e6577206f776e657220697320746865207a65726f20616464726573735369676e6564536166654d6174683a206164646974696f6e206f766572666c6f774f776e61626c653a2063616c6c6572206973206e6f7420746865206f776e6572a26469706673582212205ff41b8be3c357c8e54b97bd4a081ea52364cf0e85b7c104857c23d07d24782e64736f6c63430007060033",
    "linkReferences": {}
  },
  "methodIdentifiers": {
    "WEEK()": "f4359ce5",
    "counter()": "61bc221a",
    "delegate(address)": "5c19a95c",
    "delegateBySig(address,uint256,uint256,uint8,bytes32,bytes32)": "c3cda520",
    "delegates(address)": "587cde1e",
    "getLock(uint96,uint32,uint32)": "f15403f9",
    "getPastTotalSupply(uint256)": "8e539e8c",
    "getPastVotes(address,uint256)": "3a46b1a8",
    "getVotes(address)": "9ab24eb0",
    "migrateTo()": "98c6e760",
    "minCliffPeriod()": "67c8c473",
    "minSlopePeriod()": "b6231633",
    "owner()": "8da5cb5b",
    "renounceOwnership()": "715018a6",
    "roundTimestamp(uint32)": "8606d0e1",
    "setMinCliffPeriod(uint32)": "6a4fd450",
    "setMinSlopePeriod(uint32)": "9109ec00",
    "setStartingPointWeek(uint32)": "49b32116",
    "startingPointWeek()": "ac7ae589",
    "stopped()": "75f12b21",
    "token()": "fc0c546a",
    "totalSupplyLine()": "b53546ab",
    "totalSupplyLineOld()": "940b6dcf",
    "transferOwnership(address)": "f2fde38b",
    "updateAccountLines(address,uint32)": "258c97ca",
    "updateAccountLinesBlockNumber(address,uint32)": "5b4df0a2",
    "updateTotalSupplyLine(uint32)": "9f4d110f",
    "updateTotalSupplyLineBlockNumber(uint32)": "d4fadbde"
  },
  "id": 7
}